{
  "contractName": "Transactions",
  "abi": [
    {
      "constant": true,
      "inputs": [],
      "name": "blockNumber",
      "outputs": [
        {
          "name": "",
          "type": "uint256"
        }
      ],
      "payable": false,
      "stateMutability": "view",
      "type": "function"
    },
    {
      "constant": true,
      "inputs": [],
      "name": "owner",
      "outputs": [
        {
          "name": "",
          "type": "address"
        }
      ],
      "payable": false,
      "stateMutability": "view",
      "type": "function"
    },
    {
      "constant": true,
      "inputs": [],
      "name": "numTransactions",
      "outputs": [
        {
          "name": "",
          "type": "uint256"
        }
      ],
      "payable": false,
      "stateMutability": "view",
      "type": "function"
    },
    {
      "inputs": [],
      "payable": false,
      "stateMutability": "nonpayable",
      "type": "constructor"
    }
  ],
  "bytecode": "0x608060405234801561001057600080fd5b5033600260006101000a81548173ffffffffffffffffffffffffffffffffffffffff021916908373ffffffffffffffffffffffffffffffffffffffff16021790555061011f806100616000396000f3fe6080604052348015600f57600080fd5b5060043610603c5760003560e01c806357e871e71460415780638da5cb5b14605d57806390b4cc721460a5575b600080fd5b604760c1565b6040518082815260200191505060405180910390f35b606360c7565b604051808273ffffffffffffffffffffffffffffffffffffffff1673ffffffffffffffffffffffffffffffffffffffff16815260200191505060405180910390f35b60ab60ed565b6040518082815260200191505060405180910390f35b60005481565b600260009054906101000a900473ffffffffffffffffffffffffffffffffffffffff1681565b6001548156fea165627a7a7230582037c75e52f64e2b9e4806f7046cec73a8c9ec74b2e18b6aa093a4a0b424b0f4110029",
  "source": "pragma solidity ^0.5.0;\n\ncontract Transactions {\n\tuint public blockNumber;\n\tuint public numTransactions;\n\taddress public owner;\n\n\n\t//constructor - setting up the owner of the contract.\n\t    constructor() public{\n\t\towner = msg.sender;\n\t\t}\n\n\n}\n",
  "sourcePath": "/Users/vivekkhimani/OneDrive - Drexel University/BlockchainDevelopment/TransactionCount/src/contracts/Transactions.sol",
  "compiler": {
    "name": "solc",
    "version": "0.5.8+commit.23d335f2.Emscripten.clang"
  },
  "schemaVersion": "3.0.16",
  "updatedAt": "2019-09-15T15:22:45.788Z",
  "devdoc": {
    "methods": {}
  },
  "userdoc": {
    "methods": {}
  }
}